:020000040800F2
:1080000058380020C9810008E79E0008E19C00085C
:10801000E59E0008338300087BBC000800000000D8
:1080200000000000000000000000000097A200080F
:10803000418300080000000095A2000899A20008F2
:10804000E3810008E3810008E3810008E381000880
:10805000E3810008E3810008E3810008E381000870
:10806000E3810008E3810008E3810008E381000860
:10807000E3810008E3810008E3810008E381000850
:10808000E3810008E3810008E3810008E381000840
:1080900005BC0008E3810008E3810008E3810008D3
:1080A000E3810008E3810008E3810008E381000820
:1080B000E3810008E3810008E3810008E381000810
:1080C000E3810008E3810008E3810008E381000800
:1080D000E381000875A60008E3810008E381000839
:1080E000E3810008E3810008E381000800F002F862
:1080F00000F05AF80AA090E8000C82448344AAF1E8
:108100000107DA4501D100F04FF8AFF2090EBAE8E5
:108110000F0013F0010F18BFFB1A43F001031847BB
:10812000543C0000743C00000A444FF0000C10F86E
:10813000013B13F0070408BF10F8014B1D1108BFE5
:1081400010F8015B641E05D010F8016B641E01F885
:10815000016BF9D113F0080F1EBF10F8014BAD1CD5
:108160000C1B09D16D1E58BF01F801CBFAD505E0F3
:1081700014F8016B01F8016B6D1EF9D59142D6D34D
:10818000704700000023002400250026103A28BF75
:1081900078C1FBD8520728BF30C148BF0B60704779
:1081A0001FB51FBD10B510BD00F08AF81146FFF7CE
:1081B000F7FF03F073FD00F0A8F803B4FFF7F2FF38
:1081C00003BC00F0AFF800000948804709480047A9
:1081D000FEE7FEE7FEE7FEE7FEE7FEE7FEE7FEE777
:1081E000FEE7FEE704480549054A064B70470000D4
:1081F00013A30008ED8000085832002058380020F2
:10820000583400205834002010B5203AC0F00B80BC
:10821000B1E81850203AA0E81850B1E81850A0E88A
:108220001850BFF4F5AF5FEA027C24BFB1E81850E4
:10823000A0E8185044BF18C918C0BDE810405FEA54
:10824000827C24BF51F8043B40F8043B08BF7047D0
:10825000D20728BF31F8023B48BF11F8012B28BFD5
:1082600020F8023B48BF00F8012B70474FF0000296
:1082700000B5134694469646203922BFA0E80C501C
:10828000A0E80C50B1F12001BFF4F7AF090728BFF7
:10829000A0E80C5048BF0CC05DF804EB890028BF73
:1082A00040F8042B08BF704748BF20F8022B11F09C
:1082B000804F18BF00F8012B704770477047704718
:1082C000754600F02BF8AE4605006946534620F08F
:1082D0000700854618B020B5FFF784FFBDE82040B1
:1082E0004FF000064FF000074FF000084FF0000B72
:1082F00021F00701AC46ACE8C009ACE8C009ACE825
:10830000C009ACE8C0098D46704710B50446AFF30C
:1083100000802046BDE81040FFF74FBF004870477F
:10832000F831002001491820ABBEFEE7260002000C
:108330007047FEE70020704700207047002070471C
:10834000704772B6FEE710B590F82110002202299E
:1083500005D00421816380F82020012010BD016830
:108360000B6823F00E030B6001680B6823F0010318
:108370000B6090F84030C46B012101FA03F3636095
:1083800080F8211080F82020104610BD10B590F81C
:1083900021100024022903D00421816301243DE03F
:1083A00001680A6822F00E020A6001680A6822F079
:1083B00001020A601A4A0168914201D1012121E0BB
:1083C000174A1432914201D110211BE0144A28327D
:1083D000914201D1891515E0114A3C32914201D1F7
:1083E00089140FE00E4A5032914202D14FF480318D
:1083F00008E00B4A6432914202D14FF4801101E04F
:108400004FF08071064A083A5160012180F821102E
:10841000002180F82010416B01B18847204610BD33
:108420000800024070B5044600F00CF90546601CD7
:1084300002D004480078044400F004F9401BA04234
:10844000FAD370BD682800202DE9F84FDFF8B89105
:108450000024A9F1040B23460F2709F1040AABF10C
:10846000040EC9E00125A5402A40AA427DD1674EED
:10847000D1F804C0ACEB0608B44532D014DCBCF132
:10848000030F3AD009DCBCF1000F2AD0BCF1010F78
:108490001CD0BCF1020F31D11DE0BCF1110F17D07F
:1084A000BCF1120F2AD119E0B8F5881F19D006DCEB
:1084B000B8F5803F15D0B8F5801F1FD111E0B8F591
:1084C000001F0ED0B8F5041F18D10AE0CB6815E0E4
:1084D000CB681B1D12E0CB6808330FE0CB680C3370
:1084E0000CE08B682BB1012B4FF0080303D04561E2
:1084F00004E0042302E0056100E00023FF2A01D824
:10850000064601E000F104064FEA840501D9A5F111
:108510002005D6F8008007FA05FC28EA0C0803FAC3
:1085200005F548EA0508C6F800804D68ED0062D5FB
:10853000374DAE6946F00106AE61AD6924F0030621
:1085400005F001050095334D06EB050CDCF80850ED
:10855000A607360F07FA06F825EA0805DFF8B880FF
:10856000404503D14FF0000817E044E0DFF8AC804D
:10857000404502D14FF001080FE0DFF8A4804045EC
:1085800002D14FF0020808E0DFF89880404502D1A0
:108590004FF0030801E04FF0040808FA06F848EA33
:1085A0000508CCF808804D68D9F80060ED024D460A
:1085B00001D5164300E096432E604D68DAF800605E
:1085C000AD02554601D5164300E096432E604D6836
:1085D000DBF80060AD035D4601D5164300E096432D
:1085E0002E604D68DEF80060ED03754601D5164338
:1085F00000E096432E60641C0D682A46E5407FF437
:1086000031AFBDE8F88F00000804014000001110F0
:10861000001002400000014000080140000C014031
:108620000010014000140140C26821EA02030A4020
:1086300043EA0241016170470AB1016170470904D0
:10864000FBE70000014880687047000068280020B0
:1086500002488168027811448160704768280020D0
:10866000074810B5016841F010010160032000F0D7
:1086700075F80F2000F006F800F024F8002010BD77
:108680000020024070B50D4D04464FF47A712878F1
:10869000B1FBF0F00A490968B1FBF0F001F004F811
:1086A00048B9102C07D200222146501E00F036F89F
:1086B00000206C6070BD012070BD000068280020A3
:1086C000742800200C4808B5816941F001018161DE
:1086D000816901F001010091C16941F08051C161DE
:1086E000C06900F0805000900448416821F0E061CA
:1086F00041F00071416008BD0010024000000140DF
:10870000002809DB00F01F02012191404009800090
:1087100000F1E020C0F8001170470000F0B40E4BEB
:108720001B680C46C3F30223C3F10705042D00D9CF
:108730000425191D072901D2002300E0DB1E0126B4
:1087400006FA05F1491E214099409E40761E1640CA
:108750003143F0BC03F092BA0CED00E0064900F0A2
:10876000070208684FF6FF03184040EA0220034A58
:1087700010430860704700000CED00E00000FA05AF
:1087800010B50C0607D501F0070101EB810100EBE4
:10879000C100283005E001EB810100EBC10000F5CC
:1087A000B47099B232B1012202730181190C418176
:1087B000002010BD00220273C180F9E7704701EB71
:1087C000810200EBC202D0F8EC02D26B02F0F5B9E4
:1087D00001EB810200EBC202D0F8EC02D2F87C215E
:1087E00002F04EBA70B504460B0601F0070000EB2C
:1087F000800104EBC1014FF001024FF0000503D5E9
:1088000081F82920283103E081F8695101F5B4711C
:10881000087094F8A802012808D084F8A8222068DB
:1088200002F084FE84F8A852002070BD022070BDC2
:1088300070B5044601F00F006268904201D9012032
:1088400070BD0B0601F0070000EB800104EBC101D5
:108850004FF001024FF0000503D581F8292028319F
:1088600003E081F8695101F5B4718D70087094F8D6
:10887000A802012808D084F8A822206802F0F3FE9C
:1088800084F8A852002070BD022070BD2DE9F05F71
:1088900004685FEA424C0B788D69B4F850C04FF021
:1088A00000064BF68F7948F2800A48F68F7B48F233
:1088B000C00E4FF480672AD54FF0020808EBC308BA
:1088C000C44407EB4C07E45BC4F30904A54203D39B
:1088D0002D1B8D6101D00BE08E61066836F82350A8
:1088E00005EA090585F4005545EA0A0526F82350EE
:1088F000520609D50D78036833F8252002EA0B02E9
:1089000042EA0E0223F8252084B30A8929E04FF0B9
:10891000060808EBC308C44407EB4C07E45BC4F348
:108920000904A54203D32D1B8D6101D00BE08E619C
:10893000066836F8235005EA090585F4005545EA2E
:108940000A0526F82350520609D40B78056835F835
:10895000232002EA0B0242EA0E0225F823202CB162
:108960004A8949690068234603F056F92046BDE864
:10897000F09F2DE9F05F054600680C465FEA426C07
:1089800016468B692278B0F850C048F68F774CF2C3
:1089900080094FF4004B4FF6FF7E4FF4806A4FF092
:1089A000000172D54FF0020808EBC208E0440AEB60
:1089B000480C30F80C00C0F30900834211D91B1A8F
:1089C000A3610FD0730407D52E6836F822303B40E0
:1089D00043EA090326F8223094F82420012A47D0DC
:1089E00052E1A161607810B1012813D01AE0286823
:1089F000B0F85030184400EB0210B0F80424C2F371
:108A00000902A0F80424B0F8042442F40042A0F8BB
:108A1000042407E02868B0F85030184400EB021036
:108A2000A0F804146278286812B1012A11D018E065
:108A3000B0F850100844217800EB0110B0F80C1485
:108A4000C1F30901A0F80C14B0F80C1441F4004172
:108A500005E0B0F850201044227800EB0210A0F896
:108A60000C1421782846FFF7AAFE700472D40BE19B
:108A7000626902446261E2690244E2612369226A36
:108A80009A4203D31846111A04E03EE084F82410F9
:108A90000AB110462162617811B1012929D031E073
:108AA0002968B1F850201144227801EB0211B1F885
:108AB0000424C2F30902A1F8042401F204413E286F
:108AC00007D94209C30600D1521E0B884BEA822205
:108AD00007E048B14208C30700D0521C0B880EEAD9
:108AE000822213430B800DE00A8842F400420A8080
:108AF00008E02968B1F850201144227801EB0211F6
:108B0000A1F8040483B22289BAE04FF0060808EB0A
:108B1000C208E0440AEB480C30F80C00C0F309002E
:108B2000834211D31B1AA3610FD0730407D42E689C
:108B300036F822303B4043EA090326F8223094F805
:108B40002420012A51D09FE0A161607818B101284A
:108B500014D01BE03FE02868B0F85030184400EB18
:108B60000210B0F80424C2F30902A0F80424B0F8FB
:108B7000042442F40042A0F8042407E02868B0F876
:108B80005030184400EB0210A0F8041462782868F2
:108B900012B1012A11D018E0B0F850100844217821
:108BA00000EB0110B0F80C14C1F30901A0F80C148B
:108BB000B0F80C1441F4004105E0B0F85020104426
:108BC000227800EB0210A0F80C1421782846FFF759
:108BD000F6FD700458D42278296831F82200384014
:108BE00040EA090021F822004EE062690244626115
:108BF000E2690244E2612369226A9A4203D3184679
:108C0000111A216204E00AB11046216284F824108E
:108C10006278296812B1012A28D02FE0B1F85020DB
:108C20001144227801EB0211B1F80C24C2F30902BD
:108C3000A1F80C2401F20C413E2807D94209C306D1
:108C400000D1521E0B884BEA822207E048B142084D
:108C5000C30700D0521C0B880EEA822213430B80FC
:108C60000CE00A8842F400420A8007E0B1F8502084
:108C70001144227801EB0211A1F80C04628983B23D
:108C80006169286802F0E6FF2278296831F822003D
:108C900048F6BF73184080F0300048F28003184354
:108CA00021F822000020BDE8F09F2DE9F0410446A4
:108CB0000F0601F0070000EB800104EBC1014FF04B
:108CC00001064FF0000503D581F82960283103E043
:108CD00081F8695101F5B471022B08700A61CB70FB
:108CE00000D10D7194F8A802012809D084F8A86277
:108CF000206802F0CBFA284684F8A852BDE8F0813B
:108D00000220FBE710B501F0070404EB840100EB3F
:108D1000C101C1E95F230022C1F8842181F86921E2
:108D200081F86841006801F5B47102F0F1FC00209F
:108D300010BD70B504460D4601F007006168884219
:108D400001D9012070BD29064FF000064FF0010245
:108D500007D500EB800104EBC10181F829202831FF
:108D600007E005EB850104EBC10181F8696101F5BC
:108D7000B4718A70087094F8A802012807D084F8AA
:108D8000A822206802F0ABFC680702D006E00220AF
:108D900070BD04F52C71206802F063FC84F8A862B1
:108DA000002070BD10B501F0070404EB840100EB56
:108DB000C101C1E90F23012281F84C208B640023FB
:108DC0004B6481F8292001F8284F006802F0A0FCCC
:108DD000002010BD1FB50446006802F019FF010411
:108DE00003D5204601F080F81FBD41050DD5206850
:108DF00030F8441F21F480610180204600F010F912
:108E00000021204600F027F91FBD410405D5206848
:108E100030F8441F21F4804174E0810405D52068B6
:108E200030F8441F21F400516CE0C10414D52068CF
:108E300030F8401F21F004010180206830F8401F05
:108E400021F008010180204600F0FDF8206830F88C
:108E5000441F21F4805155E0010540D5D4F800208D
:108E60000020694632F8203021F81030401CC0B292
:108E70000828F7D332F8400F40F001001080206836
:108E800030F8402F22F0010202802068B0F8442020
:108E90005205FBD530F8442F22F480620280002076
:108EA000236831F8102023F82020401CC0B2082885
:108EB000F6D3206830F8401F41F008010180206897
:108EC00030F8441F21F400610180206830F8401F11
:108ED00041F004010180204600F0F2F81FBD810539
:108EE00009D5206830F8441F21F400710180204624
:108EF00000F0ADF81FBDC005FCD5206830F8441F58
:108F000021F4807101801FBD2DE9F04186B004007D
:108F100004D094F8A902002520B108E0012006B091
:108F2000BDE8F08184F8A852204600F05BF80320E9
:108F300084F8A902206802F08DFB04F110011422CC
:108F400088466846FFF760F994E80F0002F0ECFAF3
:108F50000227D0BB0021206802F074FE0020012609
:108F60000EE000BF00EB800104EBC10181F8296035
:108F700001F8280F401CCD700D614D61C0B28D61AC
:108F800061688142EED8002012E000BF00EB800152
:108F900004EBC10181F8695181F8680181F86B51D6
:108FA000C1F87851C1F87C51401CC0B2C1F8805161
:108FB00061688142EAD8142241466846FFF724F9E5
:108FC00094E80F0002F03DFB10B184F8A972A5E708
:108FD00084F8245084F8A962206802F030FB002055
:108FE0009DE7000008B500680B49884212D10B4884
:108FF000C16941F40001C161C069002200F40000B0
:10900000009011461420FFF789FBBDE808401420AA
:10901000FFF776BB08BD0000005C00400010024076
:1090200070B5044680680125022801D0FFF789F950
:109030002946D4F8EC0201F000FFD4F8EC02BDE8B8
:10904000704001F0BCBED0F8EC0201F0E0BED0F8F8
:10905000EC0201F0E6BE10B5044690F8A802012823
:109060000BD0012084F8A80284F82410206802F0B4
:10907000EBFD002084F8A80210BD022010BDD0F83E
:10908000EC2200F52C71104601F0E3BE10B5044649
:1090900090F8A802012810D0012084F8A8022068C6
:1090A00002F0A7FD01212046FFF788FB206802F0AF
:1090B000C4FA002084F8A80210BD022010BD0000F0
:1090C00010B50446D0F8EC0201F002FFA0690028B8
:1090D00004D00348016841F00601016010BD0000A2
:1090E00010ED00E02DE9F84305460078354CC00747
:1090F00054D0E0690026C00008D4E06940F08050F8
:10910000E061E069012600F0805000902E4801687F
:10911000C90512D40168804641F480710160FFF7EF
:1091200091FA074605E000BFFFF78CFAC01B6428E0
:1091300023D8D8F80000C005F6D5206A10F4407096
:1091400021D0A98801F4407181421CD0206A1F49B6
:10915000012220F440700A6000220A602062C007E9
:1091600011D0FFF76FFA074641F2883808E000BFD8
:10917000FFF768FAC11B414502D90320BDE8F88317
:10918000206A8007F4D5206A696820F4407008439B
:1091900020621EB1E06920F08050E06128788007ED
:1091A00005D56068A96820F44040084360602878CD
:1091B000C00605D56068E96820F480000843606057
:1091C0000020DBE7001002400070004040044242F3
:1091D0002DE9F0470F46050061D0434E306800F09E
:1091E0000700B84209D2306820F0070038433060E9
:1091F000306800F00700B84251D128683B4C810725
:1092000012D5400703D5606840F4E06060602878BC
:10921000000703D5606840F4605060606068A9682A
:1092200020F0F000084360602878C00728D0686804
:10923000012810D02168022810D0890700292EDAD1
:10924000616821F0030101436160FFF7FBF980468B
:1092500041F288390DE021688903EFE78901EDE7E4
:10926000FFF7F0F9A0EB0801494502D90320BDE85A
:10927000F0876068696800F00C00B0EB810FEFD1F7
:10928000306800F00700B8420BD9306820F00700C2
:1092900038433060306800F00700B84201D0012048
:1092A000E5E72878400705D56068E96820F4E060C4
:1092B000084360602878000706D56068296920F4B3
:1092C000605040EAC100606000F038F86168084A08
:1092D000C1F30311515CC8400649086006480068A4
:1092E000FFF7D0F90020C2E7002002400010024042
:1092F0005ABD0008742800206C2800200448054945
:1093000000684968044AC1F30221515CC8407047B3
:1093100074280020001002406ABD00080448054976
:1093200000684968044AC1F3C221515CC8407047D3
:1093300074280020001002406ABD00080E4A5168DF
:109340000E4801F00C03042B11D0082B0FD10C4850
:10935000C1F38343C903C05C0AD55168084AC1F30D
:109360004041921E515C054A5043B0FBF1F07047FA
:1093700004494843704700000010024000127A0080
:109380004ABD000800093D002DE9F84F040070D0E7
:109390002078C04DC00749D06868C0F3810001281B
:1093A00007D06868C0F38100022809D16868C0034B
:1093B00006D52868800339D560680028E7D035E0F5
:1093C0006068B0F5803F0BD010B1B0F5A02F11D080
:1093D000286820F480302860286820F4802002E08B
:1093E000286840F480302860606890B1FFF72AF95F
:1093F00006460AE0286840F480202860F0E700BFB5
:10940000FFF720F9801B642873D828688003F7D5FC
:109410000CE0FFF717F9064605E000BFFFF712F969
:10942000801B6428F0D828688003F7D420789A4EEF
:1094300080074FF001094FF0000839D5686810F037
:109440000C0F07D06868C0F38100022809D1686852
:10945000C00306D42868800714D52069012808D1E4
:1094600010E02069B0B1C6F80090FFF7EBF80746AE
:1094700005E00AE1FFF7E6F8C01B0228C4D8286817
:109480008007F7D52868616920F0F80040EAC1003C
:1094900028600DE0C6F80080FFF7D4F8074604E026
:1094A000FFF7D0F8C01B022823D828688007F7D41C
:1094B000207800072CD57948A169D9B1C0F800906F
:1094C000FFF7C0F8074604E0FFF7BCF8C01B02280E
:1094D0000FD8686A8007F7D571484FF4FA510068D1
:1094E000B0FBF1F0009000BF0098411E0091FAD24D
:1094F0000EE080E0C0F80080FFF7A4F8074604E023
:10950000FFF7A0F8C01B022875D8686A8007F7D457
:109510002078400760D5E8690027C00008D4E869D2
:1095200040F08050E861E869012700F08050009029
:109530005C480168C90513D40168834641F4807111
:109540000160FFF77FF8824606E000BFFFF77AF878
:10955000A0EB0A0064284ED8DBF80000C005F5D562
:10956000E06801280AD008B1052813D0286A20F045
:1095700001002862286A20F0040002E0286A40F016
:1095800001002862E06841F2883B98B1FFF75AF881
:1095900082460BE0286A40F004002862EEE700BF34
:1095A000FFF750F8A0EB0A0159455AD8286A8007FE
:1095B000F6D50CE0FFF746F8824605E0FFF742F8E3
:1095C000A0EB0A0159454CD8286A8007F6D41FB190
:1095D000E86920F08050E861E06988B36968C1F308
:1095E0008101022944D00228C6F8608004D0FFF728
:1095F00029F8044638E034E0FFF724F8074604E091
:10960000FFF720F8C01B02282BD828688001F7D468
:10961000206AB0F5803F05D16868A16820F4003069
:1096200008436860D4E908010843696821F47411AB
:1096300008436860C6F86090FFF704F8044606E047
:1096400025E000BFFEF7FEFF001B022809D82868AE
:109650008001F7D51BE000BFFEF7F4FF001B0228D6
:1096600002D90320BDE8F88F28688001F4D40EE009
:109670000128F7D06868226A00F48031914204D151
:10968000616A00F47010884201D00120EAE70020EE
:10969000E8E700000010024000004242800442421D
:1096A000742800200070004010B5401EB0F1807F8B
:1096B00001D3012010BD4FF0E02460610F2160173D
:1096C00002F0DCFA0020A06107202061002010BD1C
:1096D00070B590F83C20012A26D0012480F83C4047
:1096E000022280F83D2003685A689D6822F07006C7
:1096F0000A6832435A600D4B02689A4208D0B2F1B0
:10970000804F05D00A4B9A4202D00A4B9A4204D1AC
:10971000496825F080031943916080F83D4000219D
:1097200080F83C10084670BD022070BD002C01403E
:10973000000400400008004010B5040003D094F875
:109740003D0010B107E0012010BD002084F83C006E
:10975000204600F01FF8022084F83D00211D2068FB
:1097600000F0D8FD012084F8460084F83E0084F81B
:109770003F0084F8400084F8410084F8420084F8F7
:10978000430084F8440084F8450084F83D0000203C
:1097900010BD000008B50C4A01680C48914207D181
:1097A000816941F400618161806900F4006009E031
:1097B000B1F1804F07D1C16941F00101C161C069B8
:1097C00000F00100009008BD002C01400010024094
:1097D00070B5044690F83C000025012817D00126FA
:1097E00084F83C60022084F83D002068826822F002
:1097F000770222F47F4282600868502838D00DDC5E
:1098000020284FD005DC90B3102811D14AE0022067
:1098100070BD302846D040280AD13BE060282FD0C8
:1098200070280DD0B0F5805F03D0B0F5005F12D086
:10983000012584F83D60002084F83C00284670BD76
:10984000CB68D1E90121206800F09AFD2068816889
:1098500041F0770109E0CB68D1E90121206800F0EF
:109860008FFD2068816841F480418160E1E719E063
:10987000CA684968206800F095FD5021206806E01C
:10988000CA684968206800F09EFD6021206800F0E9
:1098900081FDCEE7CA684968206800F083FD402159
:1098A0002068F4E7226801461046F0E770477047E9
:1098B000F8B5016804460868CA684B6910F00F0FD4
:1098C0004FF0000559D003F0010602F490773743BA
:1098D00065D0C10705D0D10503D5616C41F0010108
:1098E0006164410705D5D90703D0616C41F00201DD
:1098F0006164810705D5D90703D0616C41F004018B
:109900006164010707D502F02001314303D0616C87
:1099100041F008016164616C00293AD0800604D5E9
:10992000900602D5204600F08FFD20684069616CEA
:10993000C0F38010090700D460B3204600F05DFD3D
:1099400020684069400621D52068143050E8001F87
:1099500021F0400140E80012002AF5D1E06BA8B1E7
:109960006D494163E06BFEF711FD002811D0E06BFB
:10997000416B01B0BDE8F040084783060FD5930660
:109980000DD52046BDE8F84000F05EBD2046FFF74B
:109990008EFFF8BD2046FFF78AFF6564F8BD266B91
:1099A0002023012E7CD1C6067AD5D60678D5086844
:1099B0004868009048694FF00206400640D5E16BC8
:1099C000086840680004000CE8D0A28D8242E5D906
:1099D000E085886920282DD020680C3050E8001FD1
:1099E00021F4807140E80012002AF5D1206814307B
:1099F00050E8001F21F0010140E80012002AF5D1D3
:109A00002068143050E8001F21F0400140E80012A7
:109A1000002AF5D184F84230256320680C3050E8E4
:109A2000001F21F0100140E80012002AF5D1E06B80
:109A3000FEF789FC6663A08DE18D401A81B22AE0B1
:109A4000A08DE18D401A81B2E08D0028A6D00029BA
:109A5000A4D022680C3252E8000F20F4907042E843
:109A60000007002FF5D12068143050E8002F22F0B5
:109A7000010240E80027002FF5D184F84230256329
:109A800020680C3050E8002F22F0100240E800233C
:109A9000002BF5D166632046FFF708FFF8BDFFE70E
:109AA00005062BD5150629D594F841002128F5D1B6
:109AB000A068B0F5805F01D12069B0B1206A411C77
:109AC0002162216800784860E08C401E0004000C90
:109AD000E084E3D12068C16821F08001C160206882
:109AE000C16841F04001C160D8E7206A0088C0F336
:109AF00008004860206A801C2062E5E74006CDD55A
:109B00005006CBD5CA68204622F04002CA6084F8CD
:109B1000413000F0E4F8C1E7EBA3000870B50400A1
:109B200004D094F84100002510B106E0012070BD7A
:109B300084F84050204600F023F8242084F84100A7
:109B40002068C16821F40051C160204600F0DEFCAD
:109B50002068016921F4904101612068416921F088
:109B60002A0141612068C16841F40051C160656407
:109B7000202084F8410084F842006563002070BD15
:109B800030B585B0002400940194029403940068D9
:109B9000184988422CD11848816941F4804181617B
:109BA000816901F480410491816941F0040181617E
:109BB0008069124D00F0040004904FF40070009092
:109BC000022001900320039069462846FEF73CFCE2
:109BD0002815CDE90004694628460294FEF734FCB6
:109BE000002211462520FEF799FD2520FEF788FD6D
:109BF00005B030BD003801400010024000080140AF
:109C000090F84230202B01D00220704721B11AB1C8
:109C10000023036300F0D6BC0120704710B5C823B1
:109C2000012205A1054800F00DF8BDE81040012211
:109C300003490248FFF7E4BF31000000E02900209B
:109C4000002800202DE9F843044690F841001F4603
:109C500016460D46202802D00220BDE8F8837DB1CB
:109C600076B100206064212084F84100FEF7EAFC10
:109C7000A6848046E684A068B0F5805F02D003E049
:109C80000120EAE7206910B12E4600250EE00026EB
:109C90000CE08021204600F0B0FCA0B9AEB116F86F
:109CA000010B21684860E08C401EE084E08C434654
:109CB0004FF0000200970028EBD14FF04001204602
:109CC00000F09BFC30B10320C7E735F8020BC0F36E
:109CD0000800E6E7202084F841000020BDE7704737
:109CE000FEE70000F0B500230A24302537261F4682
:109CF00011E000BFB4EB107F02D905EB107C01E04E
:109D000006EB107C01F813C001EB430C00015B1C57
:109D10008CF80170DBB29342ECD3F0BD70B586B025
:109D2000002418480094019402940394816941F03E
:109D300010018161816901F010010491816941F094
:109D400020018161816901F020010491816941F064
:109D50000401816180690C4E00F004004FF400554D
:109D60000490002229463046FEF766FC012000954B
:109D7000CDE901040220039069463046FEF764FBFA
:109D800006B070BD001002400010014010B586B052
:109D900000241748009401940294039404941349F6
:109DA000059401604721C0E9011440F2E731C0E9A0
:109DB000031444618461FFF7BFFC08B1FEF7C1FAE8
:109DC0004FF48050009069460948FFF701FD08B143
:109DD000FEF7B7FA049404A905480594FFF778FC48
:109DE000002801D0FEF7ADFA06B010BD002C0140EE
:109DF0005029002010B586B0002416480094019424
:109E00000294039404944FF080410594C0E9001437
:109E10004FF6FF71C0E9024104618461FFF78CFCD9
:109E200008B1FEF78EFA4FF4805000906946094859
:109E3000FFF7CEFC08B1FEF784FA049404A90548A4
:109E40000594FFF745FC002801D0FEF77AFA06B02A
:109E500010BD0000982900200C4810B50A49016087
:109E60004FF4E1314160002181600C22C160C0E902
:109E700004128161C161FFF751FE002803D0BDE8E3
:109E80001040FEF75EBA10BD00380140E029002006
:109E900010B500220F49104800F068FE08B1FEF727
:109EA00050FA0E490C4801F039F808B1FEF749FAAA
:109EB0000B49094800F06BFC08B1FEF742FA06486E
:109EC00001F082F8002803D0BDE81040FEF739BA4F
:109ED00010BD000004280020282A00207C28002033
:109EE00058280020FEE7FEE72DE9F84F044640F62B
:109EF0008F7B48F60F794FF480684FF0000AC0E17D
:109F0000B0F8441011F00F0539D030F82560310455
:109F10007ED530F8251001EA0B0141F0800120F8D0
:109F2000251005EB850004EBC00797F8740107F5D1
:109F3000B47700286DD0F87802286BD03978226881
:109F400032F8210048F68F73184048F2C0031843D6
:109F500022F821003978206830F82120B0F85030FC
:109F600052047DD5022202EBC1015A1808EB4201CE
:109F7000415A8905890D009173D03A89DFE0C906FD
:109F80002DD4018801EA090141F4004101802068D3
:109F900004F12805B0F850302978022202EBC10103
:109FA0005A1808EB4201405AC0F309006064E16BA3
:109FB0000844E06300212046FEF701FC94F82400E9
:109FC00000289CD0A869002899D194F82400216821
:109FD00040F08000A1F84C0084F824A051E10188F1
:109FE00004F5B4750A0521D5B0F850202B78062168
:109FF00001EBC3010A4408EB4201405A04F52C71FD
:10A00000C0F30903EB61EA88206801F005FE02E075
:10A01000B0E070E080E02068018801EA0B0141F0C7
:10A02000800101802046FFF72AF82AE10904D5D5EE
:10A03000018801EA0B0141F0800101802068B0F83D
:10A0400050202B78062101EBC3010A4408EB4201A2
:10A05000405A83059B0DEB6110D0696971B101E035
:10A0600061E05FE0EA88206801F0D6FDE96968698F
:10A070000844686100212046FEF7AAFB2168088891
:10A080000205ABD4C0F301300328A7D0B1F85000CB
:10A090000844B0F80C14C1F30901A0F80C142A69A3
:10A0A00000F20C403E2A09D95109D20600D1491EBE
:10A0B00002884FF4004343EA812109E0B2B151081C
:10A0C000D20700D0491C02884FF6FF7303EA8121B2
:10A0D0000A430280216808884BF68F72104080F492
:10A0E000405048F2800210430880CAE0018841F4E1
:10A0F00000410180EEE72068B0F850203B7806214F
:10A1000001EBC3010A4408EB4201415A8905890D5C
:10A11000009118D0FA8812E0324639462046FEF700
:10A12000B5FB00900FE0062202EBC1015A1808EBC4
:10A130004201415A8905890D009104D07A897969D3
:10A14000009B01F069FDF86900990844F86179699C
:10A15000009808447861B86918B13969009881425B
:10A1600004D939782046FEF733FB03E039462068EE
:10A1700001F0CEFA30062FD505EB850004EBC001C7
:10A18000206830F8252002EA090242F4004220F853
:10A19000252091F82B00283101281ED0F0056CD421
:10A1A0002068B0F850300D78022202EBC5021A4444
:10A1B00008EB4202805A8A69C0F30900824255D9ED
:10A1C000121A8A6154D04A6902444A61CA69104429
:10A1D000C861206801F09CFA53E0C1F818A0087B20
:10A1E000524608B3700620D5487810B1012812D025
:10A1F0003AE02068B0F8502010440A7800EB0210D2
:10A20000B0F80424C2F30902A0F80424B0F804242E
:10A2100042F4004206E02068B0F8503018440B7851
:10A2200000EB0310A0F804241EE04B78206813B163
:10A23000012B11D018E0B0F8502010440A7800EB40
:10A240000210B0F80C24C2F30902A0F80C24B0F8F4
:10A250000C2442F4004205E0B0F8503018440B786A
:10A2600000EB0310A0F80C24097802E0C1F818A054
:10A27000E9B22046FEF7A3FA03E032462046FEF795
:10A2800078FB2068B0F8441009043FF539AE00208F
:10A29000BDE8F88F70477047FEF7DAB930B593B074
:10A2A00028216846FDF7E2FF14210AA8FDF7DEFF2A
:10A2B000002401200F9410941194010412948DE84D
:10A2C000130004904FF4E010CDE908100225079523
:10A2D0006846FFF759F808B172B6FEE70F20CDE9DE
:10A2E0000A054FF48060CDE90C4002210AA80E94C3
:10A2F000FEF76EFF08B172B6FEE710200F901294C1
:10A300000FA8FEF7EFFE002801D072B6FEE713B0EB
:10A3100030BD7047F0B50268164B174C174D4FF023
:10A320008047984205D0B84203D0A04201D0A8424D
:10A3300003D122F070064A683243984205D0B842F1
:10A3400003D0A04201D0A84203D122F44074CA68CD
:10A3500022434C6922F08002224302608A68C26272
:10A360000A688262984201D1096901630121416151
:10A37000F0BD0000002C0140000400400008004037
:10A3800010B5846842EA032224F47F440A4322433E
:10A39000826010BD826822F070020A4342F0070119
:10A3A0008160704710B5036A046A24F001040462F6
:10A3B000846924F0F00444EA021423F00A020A43F8
:10A3C0008461026210BD10B5036A046A24F01004AF
:10A3D0000462846923F0A00324F4704444EA023246
:10A3E00043EA01118261016210BD10B5406A00218B
:10A3F000C185C184FFF75BFA10BD01680C3151E8DB
:10A40000002F22F4907241E80023002BF5D101685F
:10A41000143151E8002F22F0010241E80023002B03
:10A42000F5D1016B012909D101680C3151E8002FE8
:10A4300022F0100241E80023002BF5D1202180F802
:10A44000421000210163704708B590F8421022299C
:10A4500001D0022008BD82684FF480539A4201D196
:10A46000016921B1816A9A421BD04AB10AE00268AF
:10A47000816A5268C2F308020A80816A891C08E076
:10A48000026972B10268526802F07F020A70816A42
:10A49000491C8162C18D491E0904090CC18503D084
:10A4A0001BE002685268F1E70168CA6822F02002E6
:10A4B000CA600168CA6822F48072CA6001684A6989
:10A4C00022F001024A61202180F8421000214163FC
:10A4D000026B012A03D0FFF7A1FB002008BD016336
:10A4E00001680C3151E8002F22F0100241E80023EE
:10A4F000002BF5D101680A68D20602D50A684968BE
:10A500000091818DFFF7D2F9E7E7000070B50446AE
:10A5100000680169E26821F4405111430161216939
:10A52000A0680843616908432168CA6841F20C6366
:10A530009A430243CA6020684169A26921F44071CC
:10A54000114341611E492068884202D1FEF7E6FEB0
:10A5500001E0FEF7D3FE00EBC00101EB00126068E2
:10A5600064218000B2FBF0F3B3FBF1F36FF0180647
:10A570007343B2FBF0F5B2FBF0F605EB8305322333
:10A5800003EB0515B5FBF1F5B6FBF1F605F0F005AB
:10A5900005EB0615B2FBF0F6B2FBF0F0B0FBF1F004
:10A5A0006FF01802504306EB800003EB0010B0FB85
:10A5B000F1F0216800F00F002844886070BD0000B1
:10A5C0000038014081628285C285002141642221D8
:10A5D00080F84210016921B10168CA6842F48072B2
:10A5E000CA6001684A6942F001024A610068C168B4
:10A5F00041F02001C160002070472DE9F0419846EC
:10A6000017460E460446069D27E0681C25D02DB14E
:10A61000FEF718F8A0EB0800A8421ED920680C30FD
:10A6200050E8001F21F4D07140E80012002AF5D153
:10A630002068143050E8001F21F0010140E80012AA
:10A64000002AF5D1202084F8410084F8420000203F
:10A6500084F840000320BDE8F0812068006836EAF5
:10A66000000004D00020B842CFD00020F3E7012042
:10A67000F9E700000148FFF71BB90000E0290020BE
:10A68000D0F8B802002101750846704770B505463C
:10A69000D0F8B842D5F8BC226178D26820789047CB
:10A6A000022322460121284600F080FB002070BDD5
:10A6B00070B50446812100F077FA0025012120467B
:10A6C000E56200F071FAC4F86C51D4F8B80248B1F0
:10A6D000D4F8BC0204F52E7480688047206800F02E
:10A6E000D0FD2560002070BD10B5D0F8B8422169BA
:10A6F000012908D1D0F8BC0223786178C2681846D5
:10A70000904700202061002010BD00000A21018038
:10A7100000487047442900202921018000487047E3
:10A72000B42800202921018000487047E02800203B
:10A7300029210180004870470C29002070B504468B
:10A74000002602230322812100F024FB012502239D
:10A75000032229462046E56200F01CFB1820C4F8BD
:10A760006C5100F08FFDC4F8B80270B105460020AE
:10A770002875D4F8BC024068804702232A4601218C
:10A78000204600F013FB304670BD0126FBE7024671
:10A790000220002902D00020C2F8BC12704700003D
:10A7A000F8B50022D0F8B832ADF800200E78154682
:10A7B000144616F0600621D0202E55D14A78921EFC
:10A7C0000A2A51D2DFE802F00F08505050505013BF
:10A7D0000B05887858604AE00122191D35E0488849
:10A7E000000A986043E0012203F108012DE00122F4
:10A7F0001A61CA88194600F063F838E04E7836B11D
:10A80000062E0BD00A2E23D00B2E2DD128E090F847
:10A810009C22032A28D10222694616E04B88222670
:10A82000B6EB132F07D1CA88022A00D90222D0F82A
:10A83000BC120D6808E02126B6EB132F04D1CA889C
:10A840000D4D092A00D90922294600F053F80EE0DF
:10A8500090F89C22032A07D1012203F10C01F4E7AE
:10A8600090F89C22032A04D000F01FF8022420460E
:10A87000F8BD8878D860FAE73829002010B5D0F8FC
:10A88000B42252689047002010BD134610B50A4606
:10A89000002100F08BFA002010BD134610B50A46C7
:10A8A000002100F01EFB002010BD10B504468021E1
:10A8B00000F0FCFA2046BDE81040002100F0F6BA96
:10A8C00010B50323C0F85C21C0F89432C0F86021B1
:10A8D00013460A46002100F069FA002010BD10B5A9
:10A8E00005210023C0F894121A46194600F05EFABA
:10A8F000002010BD10B50223C261C0F8943202627C
:10A9000013460A46002100F0ECFA002010BD10B5F5
:10A9100004210023C0F894121A46194600F0E1FA07
:10A92000002010BD10B50A46024903A000F0EEF861
:10A93000004810BDEC2C0020437573746F6D2048E7
:10A94000494420436F6E666967000000122008804A
:10A95000004870472428002010B50A46024903A089
:10A9600000F0D4F8004810BDEC2C0020437573743F
:10A970006F6D2048494420496E7465726661636555
:10A9800000000000042008800048704720280020B4
:10A9900010B50A46024903A000F0B8F8004810BDFF
:10A9A000EC2C002053544D6963726F656C656374C1
:10A9B000726F6E696373000010B50A46024903A006
:10A9C00000F0A4F8004810BDEC2C002053544D3387
:10A9D0003220437573746F6D2048756D616E206908
:10A9E0006E746572666163650000000010B51A2020
:10A9F00008800A480168001D0468001D00680818E6
:10AA000009D008220649FFF76DF9054904221031E3
:10AA10002046FFF767F90248801E10BDE8F7FF1FC8
:10AA20003A280020F8B504460020ADF80000488818
:10AA30000D46010A082948D2DFE801F0470409174A
:10AA400047473C45D4F8B012207C0A6819E0207CC6
:10AA500002260028D4F8B40205D0C16A68468847A7
:10AA6000014646703EE0816AF8E7C0B206282CD263
:10AA7000DFE800F0030A1014181CD4F8B002426892
:10AA800005E0694690471CE0D4F8B0028268E2B164
:10AA9000207CF6E7D4F8B002C268F8E7D4F8B00238
:10AAA0000269F4E7D4F8B0024269F0E7D4F8B002E2
:10AAB0008269ECE7207C40B9D4F8B402416B684667
:10AAC000884701460EE0207C20B129462046FFF74A
:10AAD000ECFEF8BDD4F8B402016B68468847014625
:10AAE00007204870BDF8000048B1EA8852B18242A0
:10AAF00000D90246ADF800202046FFF7FBFEE888AB
:10AB00000028E6D12046FFF702FFF8BD70B500230C
:10AB100000281ED00446002502E06D1CEDB2641C26
:10AB20002678002EF9D1022404EB45041480127813
:10AB3000CA545B1C0322CA5400245B1C06E0CA549E
:10AB40005B1CDAB28C54521CD3B2401C0278002A2F
:10AB5000F5D170BD01004FF0000004D0012901D0F3
:10AB6000022901D0022070470120704710B580B142
:10AB7000D0F8B43213B10023C0F8B43209B1C0F830
:10AB8000B012012180F89C12027000F0BBF8002086
:10AB900010BD022010BD10B5D0F8C002FDF748FE70
:10ABA000BDE81040FFF7D6BF10B5D0F8C002FDF7E2
:10ABB00019FEBDE81040FFF7CDBF2DE9F041174663
:10ABC000044651B1D4F8B40242691AB194F89C0217
:10ABD000032851D00220BDE8F081D4F8943200253A
:10ABE00004F11400022B03D0042B3AD0C3B33CE091
:10ABF000D0E903639E4207D9F11AC1608AB239468F
:10AC00002046FFF74AFE12E08068B0FBF3F103FB39
:10AC1000110199B9984211D3D4F8981288420DD2F3
:10AC2000002211462046FFF738FEC4F89852002350
:10AC30001A461946204600F0B9F816E0D4F8B402D6
:10AC4000C16829B194F89C02032801D120468847A5
:10AC50008021204600F02AF92046FFF740FE04E05C
:10AC6000FFE78021204600F021F994F8A002012896
:10AC700004D184F8A05201E0204690470020AAE7C2
:10AC800070B51546044649B1D4F8B40282691AB1C8
:10AC900094F89C02032830D0022070BDD4F894129E
:10ACA00004F5AA70032902D005291ED027E0D0E9B7
:10ACB00003218A420BD9531AC3600846834200D34A
:10ACC00003469AB229462046FFF7DFFD17E0D4F885
:10ACD000B402016929B194F89C02032801D12046ED
:10ACE00088472046FFF713FE09E000200146C4F81C
:10ACF0009402204600F0DAF801E020469047002058
:10AD000070BD000010B519490446C1F8EC02C0F846
:10AD1000C0121748086008204860022088600020A0
:10AD20008861C86108620846FEF7EEF808B1FDF7D1
:10AD300008FB0022D4F8C0021823114604F5307431
:10AD4000FDF71EFD5823002280212068FDF718FD25
:10AD50009823002281212068FDF712FDD8230022CC
:10AD600001212068FDF70CFD002010BD082F0020F8
:10AD7000005C00400A0601F07F01D0F8C00201EB40
:10AD8000810100EBC10002D590F82A00704790F8CD
:10AD90006A01704710B51C461346D0F8C00222461F
:10ADA000FDF783FFBDE81040FFF7D4BE10B5D0F823
:10ADB000C002FDF7A7FFBDE81040FFF7CBBE70B59E
:10ADC0000022044640231146FFF7E4FF40260125F8
:10ADD000C4F864613346002280212046C4F85851EB
:10ADE000FFF7D8FF6662A56184F89C520020C4F882
:10ADF00094026060C4F8A402D4F8B80228B1D4F870
:10AE0000B4020021426820469047002070BD90F8AF
:10AE10009C12042903D190F89D1280F89C12002006
:10AE2000704710B590F89C12032904D1D0F8B412E1
:10AE3000C96901B18847002010BD01740020704726
:10AE400010B5D0F8C002FEF706F9BDE81040FFF7D4
:10AE500081BE70B5044600F52A70054600F04AF838
:10AE60000120C4F89402B4F8AE02C4F8980294F831
:10AE7000A80210F01F010AD001290DD0022910D01C
:10AE800000F08001204600F011F8002070BD294636
:10AE9000204600F09EF8F8E72946204600F0CAF95F
:10AEA000F3E72946204600F01DF9EEE710B5D0F88B
:10AEB000C002FDF73EFFBDE81040FFF74BBE10B5E6
:10AEC000D0F8C002FEF7E2F8BDE81040FFF742BE3E
:10AED00090F89C1280F89D12042180F89C120020AA
:10AEE000704710B5D0F8C002FDF75CFFBDE8104018
:10AEF000FFF730BE0A7802704A7842708A78CB78C1
:10AF000002EB032242800A794B7902EB0322828012
:10AF10008A79C97902EB0121C1807047024600207D
:10AF200011B1C2F8B41270470220704710B5D0F8C2
:10AF3000B42202241AB11268904700B900242046B6
:10AF400010BD000070B50E461E4D8978044629706C
:10AF5000012931D894F89C0202280BD003280FD085
:10AF600031462046FFF7A1FC29782046BDE8704015
:10AF7000FFF784BCD9B10320616084F89C0209E02A
:10AF800071B16068884212D0C1B22046FFF776FCEA
:10AF9000297861602046FFF7C9FF02280CD006E03F
:10AFA000022084F89C0220466160FFF767FC20467F
:10AFB000BDE87040FFF7ABBC31462046BDE87040AD
:10AFC000FFF773BC7828002010B5FFF778FF00204A
:10AFD00010BD2DE9F0410A78002612F0600208D079
:10AFE000202A01D0402A70D1D0F8B422926890472C
:10AFF0006DE04B78002201250A2B66D2DFE803F0D2
:10B00000405D6557650805652C29FFF70BFD5EE07F
:10B0100004468888D8B9C888C8B94888802816D214
:10B0200000F07F0794F89C02032810D084F89E72E9
:10B0300039462046FFF704FF2046FFF768FC1FB1A2
:10B04000022084F89C0242E084F89C523FE02046B3
:10B050003BE0FFF777FF3AE0CB88012B35D190F842
:10B060009C32012B04D0022B02D0032B2DD104E003
:10B070008260012200F1080116E00122011D13E0A7
:10B0800090F89C22012A03D0022A01D0032A1CD165
:10B09000CA88022A19D1C560D0F8A41209B10321C7
:10B0A000C160022200F10C01FFF724FC0FE0498887
:10B0B00001290CD1C0F8A45211E090F89C32012B68
:10B0C00008D0022B06D0032B04D0FFF7EEFB30464E
:10B0D000BDE8F08149880129F9D1C0F8A422FFF721
:10B0E00016FCF4E72DE9F0410A46044610780027E3
:10B0F000097910F060030AD0202B01D0402B50D1E9
:10B10000D4F8B40211468368204698478FE0C0F314
:10B110004110012806D05078D0B301282AD0032846
:10B120003FD107E0D4F8B402114683682046BDE859
:10B13000F041184794F89C02022802D0032872D1EB
:10B140000AE071B380296ED02046FFF7AFFE802160
:10B150002046FFF7ABFE6AE0508838B931B180294C
:10B1600004D0D08810B92046FFF7A0FE2046FFF794
:10B17000CEFB5CE094F89C020228E2D0032852D176
:10B18000508898BB4806F1D02046FFF704FDEDE754
:10B19000FFE794F89C020026022803D0032842D13E
:10B1A00012E040E009B180293DD1080601F07F009E
:10B1B00000EB800004EB800101D5143101E001F5C2
:10B1C000AA7102220E602AE0080601F00F0000EBCF
:10B1D000800004EB80000AD5806920B301F07F0075
:10B1E00000EB800004EB800514350BE01FE0D0F885
:10B1F0005801C0B101F07F0000EB800004EB800536
:10B2000005F5AA7541B1802906D02046FFF7B2FDA9
:10B2100010B10120286000E02E600222294620465D
:10B22000FFF768FB03E011462046FFF73EFB384678
:10B23000BDE8F08170B5054608780C4610F0600056
:10B2400003D0202801D0402816D195F89C0201286F
:10B2500003D0022801D003280ED1207901280BD871
:10B26000D5F8B402826828469047E188014306D1A8
:10B270002846FFF74CFB02E02846FFF716FB0020AC
:10B2800070BD704700487047EC2E00202DE9F04754
:10B290000C78002630F8243048F68F121340CA7814
:10B2A000002A78D0012A7CD0022A02D0032A75D045
:10B2B000012648F28002134320F824300D7830F83C
:10B2C000253048F68F7423402B43134320F8253054
:10B2D0000D7B48F2C00948F6BF734CF2800A4BF66A
:10B2E0008F77EDB3CD7891F800C0022D30F82C5057
:10B2F0007DD048F68F6805EA0805154320F82C50E4
:10B30000B0F8505091F800C0054405EB0C15B1F8A9
:10B3100008C02CF0010CA5F800C4B0F8505091F80A
:10B3200000C0054405EB0C15B1F80AC02CF0010C67
:10B33000A5F808C44D78002D7ED00D7830F825C0D2
:10B340005FEA4C4C07D530F825C00CEA040C4CEAF7
:10B350000A0C20F825C091F800C030F82C5000E00D
:10B3600022E06D0606D530F82C50254045EA090547
:10B3700020F82C50CC780D78012C30F8254004EAC8
:10B3800003047CD084F02003134320F82530C1E06F
:10B3900001E006E002E043F400738AE743F4C0638F
:10B3A00087E743F4806384E74D784DB3B0F850509D
:10B3B0000F78054405EB0715CF8827F00107A5F89E
:10B3C00000740F7830F827506D0606D530F82750F6
:10B3D000254045EA090520F82750CC78012C07D0F4
:10B3E0000C7830F82410194081F0200104E064E06A
:10B3F0000C7830F824101940114320F8241090E004
:10B40000B0F850300D78034403EB0513CD8825F0D8
:10B410000105A3F80854B0F850300D78034403EB4D
:10B420000513B3F80C54C5F30905A3F80C540D69C2
:10B4300003F20C433E2D00E045E00BD94FEA551CCA
:10B44000ED0601D1ACF1010C1D884FF4004848EA2B
:10B450008C2C0BE035B34FEA550CED0701D00CF105
:10B46000010C1D884FF6FF7808EA8C2C45EA0C0584
:10B470001D800D7830F825305B0408D500E046E0EB
:10B4800030F82530234043EA0A0320F825300978B4
:10B4900061B130F821303B4083F40053134320F86E
:10B4A00021303EE01D8845F40045E1E70188394040
:10B4B00081F440511143018033E0254048F2801867
:10B4C00045EA08051AE791F800C030F82C506D04E1
:10B4D00006D530F82C50254045EA0A0520F82C50B6
:10B4E00091F800C030F82C506D0606D530F82C507D
:10B4F000254045EA090520F82C500D7830F8254004
:10B500003C4084F44054144320F8254070E7144331
:10B5100020F825400B7830F823103940114320F8EB
:10B5200023103046BDE8F087002070472DE9F04336
:10B5300091F80C804F780A7848F6BF7C4BF68F79EB
:10B5400048F2800348F2C0054CF2800648F68F743A
:10B55000B8F1000F28D0002F30F822704FEA47478B
:10B5600048D0002F05DA30F822702740374320F802
:10B5700022700A7830F822707F0605D530F82270E4
:10B5800027402F4320F822700D7830F825202240E4
:10B59000324320F825200C7830F8242002EA0C02EF
:10B5A0001A4320F824201AE07FB130F82260760692
:10B5B00005D530F8226026402E4320F822600A7814
:10B5C00030F8221001EA0C010EE030F822506D0430
:10B5D00005D530F822502540354320F822500A780E
:10B5E00030F8221001EA0901194320F82210002046
:10B5F000BDE8F083002F05DA30F82270274037438A
:10B6000020F822700A7830F82260760605D530F8E6
:10B61000226026402E4320F822600E7830F8262043
:10B6200022402A4320F826200C7830F8242002EA11
:10B6300009021A4320F82420C1E7002070470020A7
:10B640007047012120F8401F002101808180018284
:10B650000846704730F8401F21F43F410180002028
:10B6600070470020704730B50A7BB2BB4A7848F675
:10B670008F7548F28004C2B10B7830F8232052064F
:10B6800007D530F823202A4048F2C0052A4320F885
:10B690002320CA78012A20D00A7830F8221048F6F0
:10B6A000BF73194081F0200114E00A7830F822308D
:10B6B0005B0407D530F822302B404CF280052B4339
:10B6C00020F822300A7830F822104BF68F73194098
:10B6D00081F44051214320F82210002030BD10B5E4
:10B6E0004A780978002A48F2800330F8212005D0F2
:10B6F00048F6BF74224082F0100204E04BF68F74CB
:10B70000224082F480521A4320F82120002010BDEC
:10B710002DE9F0470D464B78097B04464FF00009B0
:10B7200048F68F7248F2800A4FF400474FF6FF78D0
:10B73000012B09D000296FD0E87802286DD00128AC
:10B740006CD00120BDE8F087AE692869864200D937
:10B75000064691B1E97802291ED0286A801B28622A
:10B76000287834F820104906B4F85010214401EB31
:10B77000001073D5A0F80C6416E1B3B2EA88204635
:10B78000696900F067FAB4F850002978204400EBAA
:10B790000110A0F804640DE1296A814277D9297863
:10B7A00034F82100104048F28012104324F82100A0
:10B7B000286A801B2862287834F8201049066978A6
:10B7C00071D511B101292AD030E0B4F850102144CC
:10B7D00001EB0010B0F80C14C1F30901A0F80C142F
:10B7E00000F20C403E2E07D97109F20600D1491E25
:10B7F000028847EA812107E04EB17108F20700D0C4
:10B80000491C028808EA81210A4302800EE001886F
:10B8100041F40041018009E0F1E020E195E1B4F854
:10B820005020111901EB0010A0F80C646A89B3B222
:10B830002046696900F00EFA686930446861296938
:10B84000286A884202D9801B286202E00646C5F8B1
:10B850002090687818B101282BD032E02FE0B4F89E
:10B8600050002978204400EB0110B0F80414C1F313
:10B870000901A0F8041400F204403E2E08D9710911
:10B88000F20600D1491E028847EA812108E0A1E0C2
:10B8900056B17108F20700D0491C028808EA8121DC
:10B8A0000A4302800DE00EE0018841F4004101806E
:10B8B00007E0B4F850002978204400EB0110A0F80C
:10B8C00004642A8971E011B1012927D02DE0B4F870
:10B8D0005010214401EB0010B0F80414C1F3090129
:10B8E000A0F8041400F204403E2E07D97109F206B4
:10B8F00000D1491E028847EA812107E04EB1710854
:10B90000F20700D0491C028808EA81210A4302801C
:10B910000BE0018841F40041018006E0B4F85010CA
:10B92000214401EB0010A0F804642A89B3B2204638
:10B93000696900F08FF96869304468612969286A8B
:10B94000884202D9801B286202E00646C5F8209092
:10B95000687810B1012836D026E0B4F85000297874
:10B96000204400EB0110B0F80C14C1F30901A0F859
:10B970000C1400F20C403E2E07D97109F20600D1DA
:10B98000491E028847EA812107E04EB17108F2079B
:10B9900000D0491C028808EA81210A43028003E0A2
:10B9A000018841F4004101806A89B3B22046696987
:10B9B00000F050F9297834F8210048F6BF721040A1
:10B9C00080F030000FE1B4F850100819297800EB2E
:10B9D0000110CFE62A7834F8220048F68F63184029
:10B9E00040EA0A0024F82200B4F850002A782044E3
:10B9F00000EB02108BB2A0F804342A89D6E7A969BB
:10BA00002869814202D9091AA96102E00846C5F8ED
:10BA10001890B4F850102A78214401EB0211B1F8C3
:10BA20000C24C2F30902A1F80C2401F20C413E28B7
:10BA30007DD94209C00600D1521E088847EA8222F9
:10BA40000AE0088840F4004007E04208C00700D040
:10BA5000521C088808EA822210430880BBE033BBEE
:10BA6000B4F850002978204400EB0110B0F8041419
:10BA7000C1F30901A0F80414296900F204403E2929
:10BA800007D94B09C90600D15B1E018847EA832309
:10BA900007E041B14B08C90700D05B1C018808EAE8
:10BAA0008323194302E0018841F400410180687852
:10BAB00010B1012828D030E0B4F850002978204493
:10BAC00000EB0110B0F80C14C1F30901A0F80C143C
:10BAD000296900F20C403E2907D94B09C90600D15B
:10BAE0005B1E018847EA832307E041B14B08C90781
:10BAF00000D05B1C018808EA8323194302E0018817
:10BB000041F40041018008E0B4F850100819297888
:10BB100000EB0110298AA0F80C14E869C0B3297859
:10BB200034F82100430401D5430605D400E046E083
:10BB300044F2400318424ED134F82100104048F23C
:10BB4000C002104324F8210045E0A9692869814218
:10BB500002D9091AA96102E00846C5F8189013BB7A
:10BB6000B4F850102A78214401EB0211B1F80424F2
:10BB7000C2F30902A1F8042401F204413E2808D9C5
:10BB80004209C30600D1521E0B8847EA822208E010
:10BB900021E078B14208C30700D0521C0B8808EAA4
:10BBA000822213430B80697800293FF42EAF0129CC
:10BBB00009D010E00A8842F400420A80F3E7002826
:10BBC0007FF443AF3DE7B4F8502011192A7801EB18
:10BBD0000211A1F80C04297834F821004BF68F7279
:10BBE000104080F4405040EA0A0024F82100002070
:10BBF000A8E50021A0F844104FF43F41A0F8401000
:10BC0000002070470148FDF7E5B80000082F00202C
:10BC1000B0F844007047000010B500EB42005C082B
:10BC200000F5806009D000BF30F8042B01F8012B2B
:10BC3000120A01F8012B641EF6D1DA0701D0008840
:10BC4000087010BD0020704711B98021A0F84C1079
:10BC50000020704710B55B1C00EB42005B0800F54C
:10BC6000806009D011F8012B11F8014B42EA04223F
:10BC700020F8042B5B1EF5D110BDFEE70907090E65
:10BC8000002804DB00F1E02080F80014704700F089
:10BC90000F0000F1E02080F8141D70471B491A487E
:10BCA0000860FCF7DDFCFEF7F9FAFEF737F8FEF75F
:10BCB000D3F8FEF7EDF8FEF769F8FEF79BF8C82316
:10BCC0000A2213A11548FDF7BDFF012214491348AC
:10BCD000FDF796FFC8230B2212A11048FDF7B2FF13
:10BCE000C823122212A10D48FDF7ACFF154D4FF4E9
:10BCF000005440F2DC5621462846FCF795FC3046BD
:10BD0000FCF790FBF7E700000080000808ED00E07A
:10BD10007570646174615F4F4B0A0000E029002078
:10BD200000280020726563656976655F4F4B0A00E5
:10BD3000706C656173655F7772697474655F61705B
:10BD4000700A00000010014001020203040506070A
:10BD500008090A0B0C0D0E0F101000000000000067
:10BD600000000102030406070809000000000102A8
:10BD70000304000094BD00080028002050010000CA
:10BD80002881000834BE000850290020080F000058
:10BD90008481000841134DA91B0885041A91041AD7
:10BDA000B9041AED041A25041A59041704030904E6
:10BDB0001201320216408304505726020102030189
:10BDC000031B1A0322C0135428142039831B08357F
:10BDD000041A3D0419331182105324F4133DA7149F
:10BDE00008B1A61B08A108411AE90C1A81041A8D92
:10BDF00004C11A25201A19041A31041A0D04140951
:10BE0000022913010125C03209042A0289150921DA
:10BE10001101140122021607058103022D050705F1
:10BE20000107291A09562C691A31130A0629082A0A
:04BE300040E40000EA
:04000005080080ED82
:00000001FF
